Archive member included because of file (symbol)

c:/program files/gnu tools arm embedded/4.6 2012q2/bin/../lib/gcc/arm-none-eabi/4.6.2/armv6-m\libgcc.a(_udivsi3.o)
                              ..\obj\lpc11xx_i2c.o (__aeabi_uidiv)
c:/program files/gnu tools arm embedded/4.6 2012q2/bin/../lib/gcc/arm-none-eabi/4.6.2/armv6-m\libgcc.a(_divsi3.o)
                              ..\obj\main.o (__aeabi_idiv)
c:/program files/gnu tools arm embedded/4.6 2012q2/bin/../lib/gcc/arm-none-eabi/4.6.2/armv6-m\libgcc.a(_dvmd_tls.o)
                              c:/program files/gnu tools arm embedded/4.6 2012q2/bin/../lib/gcc/arm-none-eabi/4.6.2/armv6-m\libgcc.a(_udivsi3.o) (__aeabi_idiv0)
c:/program files/gnu tools arm embedded/4.6 2012q2/bin/../lib/gcc/arm-none-eabi/4.6.2/armv6-m\libgcc.a(_aeabi_uldivmod.o)
                              ..\obj\lpc11xx_tmr.o (__aeabi_uldivmod)
c:/program files/gnu tools arm embedded/4.6 2012q2/bin/../lib/gcc/arm-none-eabi/4.6.2/armv6-m\libgcc.a(_muldi3.o)
                              ..\obj\lpc11xx_tmr.o (__aeabi_lmul)
c:/program files/gnu tools arm embedded/4.6 2012q2/bin/../lib/gcc/arm-none-eabi/4.6.2/armv6-m\libgcc.a(bpabi.o)
                              c:/program files/gnu tools arm embedded/4.6 2012q2/bin/../lib/gcc/arm-none-eabi/4.6.2/armv6-m\libgcc.a(_aeabi_uldivmod.o) (__gnu_uldivmod_helper)
c:/program files/gnu tools arm embedded/4.6 2012q2/bin/../lib/gcc/arm-none-eabi/4.6.2/armv6-m\libgcc.a(unwind-arm.o)
                              c:/program files/gnu tools arm embedded/4.6 2012q2/bin/../lib/gcc/arm-none-eabi/4.6.2/armv6-m\libgcc.a(bpabi.o) (__aeabi_unwind_cpp_pr0)
c:/program files/gnu tools arm embedded/4.6 2012q2/bin/../lib/gcc/arm-none-eabi/4.6.2/armv6-m\libgcc.a(libunwind.o)
                              c:/program files/gnu tools arm embedded/4.6 2012q2/bin/../lib/gcc/arm-none-eabi/4.6.2/armv6-m\libgcc.a(unwind-arm.o) (restore_core_regs)
c:/program files/gnu tools arm embedded/4.6 2012q2/bin/../lib/gcc/arm-none-eabi/4.6.2/armv6-m\libgcc.a(pr-support.o)
                              c:/program files/gnu tools arm embedded/4.6 2012q2/bin/../lib/gcc/arm-none-eabi/4.6.2/armv6-m\libgcc.a(unwind-arm.o) (__gnu_unwind_execute)
c:/program files/gnu tools arm embedded/4.6 2012q2/bin/../lib/gcc/arm-none-eabi/4.6.2/armv6-m\libgcc.a(_divdi3.o)
                              c:/program files/gnu tools arm embedded/4.6 2012q2/bin/../lib/gcc/arm-none-eabi/4.6.2/armv6-m\libgcc.a(bpabi.o) (__divdi3)
c:/program files/gnu tools arm embedded/4.6 2012q2/bin/../lib/gcc/arm-none-eabi/4.6.2/armv6-m\libgcc.a(_udivdi3.o)
                              c:/program files/gnu tools arm embedded/4.6 2012q2/bin/../lib/gcc/arm-none-eabi/4.6.2/armv6-m\libgcc.a(bpabi.o) (__udivdi3)
c:/program files/gnu tools arm embedded/4.6 2012q2/bin/../lib/gcc/arm-none-eabi/4.6.2/armv6-m\libgcc.a(_clzsi2.o)
                              c:/program files/gnu tools arm embedded/4.6 2012q2/bin/../lib/gcc/arm-none-eabi/4.6.2/armv6-m\libgcc.a(_divdi3.o) (__clzsi2)
c:/program files/gnu tools arm embedded/4.6 2012q2/bin/../lib/gcc/arm-none-eabi/4.6.2/../../../../arm-none-eabi/lib/armv6-m\libg.a(lib_a-abort.o)
                              c:/program files/gnu tools arm embedded/4.6 2012q2/bin/../lib/gcc/arm-none-eabi/4.6.2/armv6-m\libgcc.a(unwind-arm.o) (abort)
c:/program files/gnu tools arm embedded/4.6 2012q2/bin/../lib/gcc/arm-none-eabi/4.6.2/../../../../arm-none-eabi/lib/armv6-m\libg.a(lib_a-memcpy.o)
                              c:/program files/gnu tools arm embedded/4.6 2012q2/bin/../lib/gcc/arm-none-eabi/4.6.2/armv6-m\libgcc.a(unwind-arm.o) (memcpy)
c:/program files/gnu tools arm embedded/4.6 2012q2/bin/../lib/gcc/arm-none-eabi/4.6.2/../../../../arm-none-eabi/lib/armv6-m\libg.a(lib_a-signal.o)
                              c:/program files/gnu tools arm embedded/4.6 2012q2/bin/../lib/gcc/arm-none-eabi/4.6.2/../../../../arm-none-eabi/lib/armv6-m\libg.a(lib_a-abort.o) (raise)
c:/program files/gnu tools arm embedded/4.6 2012q2/bin/../lib/gcc/arm-none-eabi/4.6.2/../../../../arm-none-eabi/lib/armv6-m\libg.a(lib_a-signalr.o)
                              c:/program files/gnu tools arm embedded/4.6 2012q2/bin/../lib/gcc/arm-none-eabi/4.6.2/../../../../arm-none-eabi/lib/armv6-m\libg.a(lib_a-signal.o) (_kill_r)
c:/program files/gnu tools arm embedded/4.6 2012q2/bin/../lib/gcc/arm-none-eabi/4.6.2/../../../../arm-none-eabi/lib/armv6-m\libg.a(lib_a-impure.o)
                              c:/program files/gnu tools arm embedded/4.6 2012q2/bin/../lib/gcc/arm-none-eabi/4.6.2/../../../../arm-none-eabi/lib/armv6-m\libg.a(lib_a-signal.o) (_impure_ptr)
c:/program files/gnu tools arm embedded/4.6 2012q2/bin/../lib/gcc/arm-none-eabi/4.6.2/../../../../arm-none-eabi/lib/armv6-m\libg.a(lib_a-mallocr.o)
                              c:/program files/gnu tools arm embedded/4.6 2012q2/bin/../lib/gcc/arm-none-eabi/4.6.2/../../../../arm-none-eabi/lib/armv6-m\libg.a(lib_a-signal.o) (_malloc_r)
c:/program files/gnu tools arm embedded/4.6 2012q2/bin/../lib/gcc/arm-none-eabi/4.6.2/../../../../arm-none-eabi/lib/armv6-m\libg.a(lib_a-mlock.o)
                              c:/program files/gnu tools arm embedded/4.6 2012q2/bin/../lib/gcc/arm-none-eabi/4.6.2/../../../../arm-none-eabi/lib/armv6-m\libg.a(lib_a-mallocr.o) (__malloc_lock)
c:/program files/gnu tools arm embedded/4.6 2012q2/bin/../lib/gcc/arm-none-eabi/4.6.2/../../../../arm-none-eabi/lib/armv6-m\libg.a(lib_a-reent.o)
                              c:/program files/gnu tools arm embedded/4.6 2012q2/bin/../lib/gcc/arm-none-eabi/4.6.2/../../../../arm-none-eabi/lib/armv6-m\libg.a(lib_a-signalr.o) (errno)
c:/program files/gnu tools arm embedded/4.6 2012q2/bin/../lib/gcc/arm-none-eabi/4.6.2/../../../../arm-none-eabi/lib/armv6-m\libg.a(lib_a-sbrkr.o)
                              c:/program files/gnu tools arm embedded/4.6 2012q2/bin/../lib/gcc/arm-none-eabi/4.6.2/../../../../arm-none-eabi/lib/armv6-m\libg.a(lib_a-mallocr.o) (_sbrk_r)
c:/program files/gnu tools arm embedded/4.6 2012q2/bin/../lib/gcc/arm-none-eabi/4.6.2/../../../../arm-none-eabi/lib/armv6-m\libg.a(lib_a-freer.o)
                              c:/program files/gnu tools arm embedded/4.6 2012q2/bin/../lib/gcc/arm-none-eabi/4.6.2/../../../../arm-none-eabi/lib/armv6-m\libg.a(lib_a-mallocr.o) (_free_r)

Allocating common symbols
Common symbol       size              file

errno               0x4               c:/program files/gnu tools arm embedded/4.6 2012q2/bin/../lib/gcc/arm-none-eabi/4.6.2/../../../../arm-none-eabi/lib/armv6-m\libg.a(lib_a-reent.o)
myTimers            0x8               ..\obj\main.o
sample_counter      0x2               ..\obj\main.o
max_ad_results      0x6               ..\obj\main.o
previous_sample_start
                    0x2               ..\obj\main.o
sample_result       0x2               ..\obj\main.o
sample_start        0x2               ..\obj\main.o
myProgFlags         0x8               ..\obj\main.o
ad_result           0x2               ..\obj\main.o

Discarded input sections

 .text          0x00000000        0x0 ..\obj\lpc11xx_i2c.o
 .data          0x00000000        0x0 ..\obj\lpc11xx_i2c.o
 .bss           0x00000000        0xc ..\obj\lpc11xx_i2c.o
 .text.NVIC_EnableIRQ
                0x00000000       0x2c ..\obj\lpc11xx_i2c.o
 .text.NVIC_DisableIRQ
                0x00000000       0x30 ..\obj\lpc11xx_i2c.o
 .text.I2C_getNum
                0x00000000       0x24 ..\obj\lpc11xx_i2c.o
 .text.I2C_Start
                0x00000000       0x3c ..\obj\lpc11xx_i2c.o
 .text.I2C_Stop
                0x00000000       0x2c ..\obj\lpc11xx_i2c.o
 .text.I2C_SendByte
                0x00000000       0x50 ..\obj\lpc11xx_i2c.o
 .text.I2C_GetByte
                0x00000000       0x54 ..\obj\lpc11xx_i2c.o
 .text.I2C_IntCmd
Memory Configuration

Name             Origin             Length             Attributes
rom              0x00000000         0x00002000         xr
ram              0x10000000         0x00001000         xrw
*default*        0x00000000         0xffffffff

Linker script and memory map

                0x10001000                _eram = 0x10001000

.text           0x00000000      0x608
 *(.isr_vector .isr_vector.*)
 .isr_vector    0x00000000       0xc0 ..\obj\startup_lpc11xx.o
                0x00000000                g_pfnVectors
 *(.text .text.* .gnu.linkonce.t.*)
 .text.Main_PLL_Setup
                0x000000c0       0xc8 ..\obj\system_LPC11xx.o
                0x000000c0                Main_PLL_Setup
 .text.SystemInit
                0x00000188       0x70 ..\obj\system_LPC11xx.o
                0x00000188                SystemInit
 .text.main     0x000001f8      0x2b0 ..\obj\main.o
                0x000001f8                main
 .text.Update_Outputs
                0x000004a8       0x2c ..\obj\main.o
                0x000004a8                Update_Outputs
 .text.Default_Reset_Handler
                0x000004d4       0x68 ..\obj\startup_lpc11xx.o
                0x000004d4                Default_Reset_Handler
                0x000004d4                Reset_Handler
 .text.Default_Handler
                0x0000053c        0x8 ..\obj\startup_lpc11xx.o
                0x0000053c                TIMER16_0_IRQHandler
                0x0000053c                DebugMon_Handler
                0x0000053c                HardFault_Handler
                0x0000053c                SysTick_Handler
                0x0000053c                PendSV_Handler
                0x0000053c                NMI_Handler
                0x0000053c                UART_IRQHandler
                0x0000053c                TIMER32_0_IRQHandler
                0x0000053c                TIMER32_1_IRQHandler
                0x0000053c                UsageFault_Handler
                0x0000053c                PIOINT1_IRQHandler
                0x0000053c                CAN_IRQHandler
                0x0000053c                SSP0_IRQHandler
                0x0000053c                TIMER16_1_IRQHandler
                0x0000053c                USB_FIQHandler
                0x0000053c                ADC_IRQHandler
                0x0000053c                SSP1_IRQHandler
                0x0000053c                PIOINT2_IRQHandler
                0x0000053c                USB_IRQHandler
                0x0000053c                BOD_IRQHandler
                0x0000053c                WAKEUP_IRQHandler
                0x0000053c                PIOINT0_IRQHandler
                0x0000053c                I2C_IRQHandler
                0x0000053c                MemManage_Handler
                0x0000053c                WDT_IRQHandler
                0x0000053c                SVC_Handler
                0x0000053c                PIOINT3_IRQHandler
                0x0000053c                BusFault_Handler
                0x0000053c                FMC_IRQHandler
 .text          0x00000544       0xc0 c:/program files/gnu tools arm embedded/4.6 2012q2/bin/../lib/gcc/arm-none-eabi/4.6.2/armv6-m\libgcc.a(_divsi3.o)
                0x00000544                __divsi3
                0x00000544                __aeabi_idiv
                0x000005f0                __aeabi_idivmod
 .text          0x00000604        0x4 c:/program files/gnu tools arm embedded/4.6 2012q2/bin/../lib/gcc/arm-none-eabi/4.6.2/armv6-m\libgcc.a(_dvmd_tls.o)
                0x00000604                __aeabi_idiv0
                0x00000604                __aeabi_ldiv0
 *(.glue_7t)
 .glue_7t       0x00000000        0x0 linker stubs
 *(.glue_7)
 .glue_7        0x00000000        0x0 linker stubs
 *(.rodata .rodata* .gnu.linkonce.r.*)

.vfp11_veneer   0x00000608        0x0
 .vfp11_veneer  0x00000000        0x0 linker stubs

.v4_bx          0x00000608        0x0
 .v4_bx         0x00000000        0x0 linker stubs

.ARM.extab
 *(.ARM.extab* .gnu.linkonce.armextab.*)
                0x00000608                __exidx_start = .

.ARM.exidx
 *(.ARM.exidx* .gnu.linkonce.armexidx.*)
                0x00000608                __exidx_end = .
                0x00000608                . = ALIGN (0x4)
                0x00000608                _etext = .
                0x00000608                _sidata = .

.data           0x10000000        0xc load address 0x00000608
                0x10000000                _sdata = .
 *(.data .data.*)
 .data          0x10000000        0xc ..\obj\system_LPC11xx.o
                0x10000000                ClockSource
                0x10000004                SystemFrequency
                0x10000008                SystemAHBFrequency
                0x1000000c                . = ALIGN (0x4)
                0x1000000c                _edata = .

.bss            0x1000000c       0x24 load address 0x00000614
                0x1000000c                _sbss = .
 *(.bss .bss.*)
 *(COMMON)
 COMMON         0x1000000c       0x22 ..\obj\main.o
                0x1000000c                myTimers
                0x10000014                sample_counter
                0x10000018                max_ad_results
                0x1000001e                previous_sample_start
                0x10000020                sample_result
                0x10000022                sample_start
                0x10000024                myProgFlags
                0x1000002c                ad_result
                0x10000030                . = ALIGN (0x4)
 *fill*         0x1000002e        0x2 00
                0x10000030                _ebss = .

.co_stack       0x10000030      0x400 load address 0x00000638
                0x10000030                . = ALIGN (0x8)
 *(.co_stack .co_stack.*)
 .co_stack      0x10000030      0x400 ..\obj\startup_lpc11xx.o
                0x10000030                pulStack
                0x10000430                . = ALIGN (0x4)
                0x10000430                _end = .
LOAD ..\obj\lpc11xx_i2c.o
LOAD ..\obj\lpc11xx_uart.o
LOAD ..\obj\system_LPC11xx.o
LOAD ..\obj\lpc11xx_tmr.o
LOAD ..\obj\main.o
LOAD ..\obj\lpc11xx_gpio.o
LOAD ..\obj\lpc11xx_syscon.o
LOAD ..\obj\lpc11xx_iocon.o
LOAD ..\obj\lpc11xx_adc.o
LOAD ..\obj\startup_lpc11xx.o
LOAD ..\obj\mainnew.o
LOAD ..\obj\lpc11xx_wdt.o
LOAD ..\obj\core_cm0.o
START GROUP
LOAD c:/program files/gnu tools arm embedded/4.6 2012q2/bin/../lib/gcc/arm-none-eabi/4.6.2/armv6-m\libgcc.a
LOAD c:/program files/gnu tools arm embedded/4.6 2012q2/bin/../lib/gcc/arm-none-eabi/4.6.2/../../../../arm-none-eabi/lib/armv6-m\libg.a
LOAD c:/program files/gnu tools arm embedded/4.6 2012q2/bin/../lib/gcc/arm-none-eabi/4.6.2/../../../../arm-none-eabi/lib/armv6-m\libc.a
END GROUP
OUTPUT(OVPBoardNXP.elf elf32-littlearm)

.debug_info     0x00000000     0x60da
 .debug_info    0x00000000      0xf51 ..\obj\lpc11xx_i2c.o
 .debug_info    0x00000f51     0x16d6 ..\obj\lpc11xx_uart.o
 .debug_info    0x00002627      0x5c1 ..\obj\system_LPC11xx.o
 .debug_info    0x00002be8      0x9fb ..\obj\lpc11xx_tmr.o
 .debug_info    0x000035e3      0x2a6 ..\obj\main.o
 .debug_info    0x00003889      0x7b2 ..\obj\lpc11xx_gpio.o
 .debug_info    0x0000403b      0xc28 ..\obj\lpc11xx_syscon.o
 .debug_info    0x00004c63      0x605 ..\obj\lpc11xx_iocon.o
 .debug_info    0x00005268      0x7e7 ..\obj\lpc11xx_adc.o
 .debug_info    0x00005a4f      0x164 ..\obj\startup_lpc11xx.o
 .debug_info    0x00005bb3      0x284 ..\obj\lpc11xx_wdt.o
 .debug_info    0x00005e37      0x2a3 ..\obj\core_cm0.o

.debug_abbrev   0x00000000     0x10b4
 .debug_abbrev  0x00000000      0x24c ..\obj\lpc11xx_i2c.o
 .debug_abbrev  0x0000024c      0x22e ..\obj\lpc11xx_uart.o
 .debug_abbrev  0x0000047a       0xca ..\obj\system_LPC11xx.o
 .debug_abbrev  0x00000544      0x1aa ..\obj\lpc11xx_tmr.o
 .debug_abbrev  0x000006ee       0xd8 ..\obj\main.o
 .debug_abbrev  0x000007c6      0x225 ..\obj\lpc11xx_gpio.o
 .debug_abbrev  0x000009eb      0x1ad ..\obj\lpc11xx_syscon.o
 .debug_abbrev  0x00000b98       0xdb ..\obj\lpc11xx_iocon.o
 .debug_abbrev  0x00000c73      0x19b ..\obj\lpc11xx_adc.o
 .debug_abbrev  0x00000e0e       0xa3 ..\obj\startup_lpc11xx.o
 .debug_abbrev  0x00000eb1        0x1 ..\obj\mainnew.o
 .debug_abbrev  0x00000eb2      0x136 ..\obj\lpc11xx_wdt.o
 .debug_abbrev  0x00000fe8       0xcc ..\obj\core_cm0.o

.debug_loc      0x00000000     0x21f2
 .debug_loc     0x00000000      0x4c4 ..\obj\lpc11xx_i2c.o
 .debug_loc     0x000004c4      0x66e ..\obj\lpc11xx_uart.o
 .debug_loc     0x00000b32       0xa8 ..\obj\system_LPC11xx.o
 .debug_loc     0x00000bda      0x2d8 ..\obj\lpc11xx_tmr.o
 .debug_loc     0x00000eb2       0x64 ..\obj\main.o
 .debug_loc     0x00000f16      0x2d8 ..\obj\lpc11xx_gpio.o
 .debug_loc     0x000011ee      0x76c ..\obj\lpc11xx_syscon.o
 .debug_loc     0x0000195a      0x1c0 ..\obj\lpc11xx_iocon.o
 .debug_loc     0x00001b1a      0x2f8 ..\obj\lpc11xx_adc.o
 .debug_loc     0x00001e12       0x64 ..\obj\startup_lpc11xx.o
 .debug_loc     0x00001e76      0x1f4 ..\obj\lpc11xx_wdt.o
 .debug_loc     0x0000206a      0x188 ..\obj\core_cm0.o

.debug_aranges  0x00000000      0x638
 .debug_aranges
                0x00000000       0xc8 ..\obj\lpc11xx_i2c.o
 .debug_aranges
                0x000000c8      0x108 ..\obj\lpc11xx_uart.o
 .debug_aranges
                0x000001d0       0x30 ..\obj\system_LPC11xx.o
 .debug_aranges
                0x00000200       0x80 ..\obj\lpc11xx_tmr.o
 .debug_aranges
                0x00000280       0x28 ..\obj\main.o
 .debug_aranges
                0x000002a8       0x80 ..\obj\lpc11xx_gpio.o
 .debug_aranges
                0x00000328      0x130 ..\obj\lpc11xx_syscon.o
 .debug_aranges
                0x00000458       0x58 ..\obj\lpc11xx_iocon.o
 .debug_aranges
                0x000004b0       0x88 ..\obj\lpc11xx_adc.o
 .debug_aranges
                0x00000538       0x28 ..\obj\startup_lpc11xx.o
 .debug_aranges
                0x00000560       0x68 ..\obj\lpc11xx_wdt.o
 .debug_aranges
                0x000005c8       0x70 ..\obj\core_cm0.o

.debug_ranges   0x00000000      0x578
 .debug_ranges  0x00000000       0xb8 ..\obj\lpc11xx_i2c.o
 .debug_ranges  0x000000b8       0xf8 ..\obj\lpc11xx_uart.o
 .debug_ranges  0x000001b0       0x20 ..\obj\system_LPC11xx.o
 .debug_ranges  0x000001d0       0x70 ..\obj\lpc11xx_tmr.o
 .debug_ranges  0x00000240       0x18 ..\obj\main.o
 .debug_ranges  0x00000258       0x70 ..\obj\lpc11xx_gpio.o
 .debug_ranges  0x000002c8      0x120 ..\obj\lpc11xx_syscon.o
 .debug_ranges  0x000003e8       0x48 ..\obj\lpc11xx_iocon.o
 .debug_ranges  0x00000430       0x78 ..\obj\lpc11xx_adc.o
 .debug_ranges  0x000004a8       0x18 ..\obj\startup_lpc11xx.o
 .debug_ranges  0x000004c0       0x58 ..\obj\lpc11xx_wdt.o
 .debug_ranges  0x00000518       0x60 ..\obj\core_cm0.o

.debug_line     0x00000000     0x2965
 .debug_line    0x00000000      0x69a ..\obj\lpc11xx_i2c.o
 .debug_line    0x0000069a      0x60b ..\obj\lpc11xx_uart.o
 .debug_line    0x00000ca5      0x236 ..\obj\system_LPC11xx.o
 .debug_line    0x00000edb      0x396 ..\obj\lpc11xx_tmr.o
 .debug_line    0x00001271      0x1a4 ..\obj\main.o
 .debug_line    0x00001415      0x3be ..\obj\lpc11xx_gpio.o
 .debug_line    0x000017d3      0x55f ..\obj\lpc11xx_syscon.o
 .debug_line    0x00001d32      0x2b7 ..\obj\lpc11xx_iocon.o
 .debug_line    0x00001fe9      0x362 ..\obj\lpc11xx_adc.o
 .debug_line    0x0000234b       0xd6 ..\obj\startup_lpc11xx.o
 .debug_line    0x00002421        0x0 ..\obj\mainnew.o
 .debug_line    0x00002421      0x35b ..\obj\lpc11xx_wdt.o
 .debug_line    0x0000277c      0x1e9 ..\obj\core_cm0.o

.debug_str      0x00000000     0x2a19
 .debug_str     0x00000000      0x945 ..\obj\lpc11xx_i2c.o
                                0x9ef (size before relaxing)
 .debug_str     0x00000945      0xc18 ..\obj\lpc11xx_uart.o
                                0xf2b (size before relaxing)
 .debug_str     0x0000155d       0xc1 ..\obj\system_LPC11xx.o
                                0x48e (size before relaxing)
 .debug_str     0x0000161e      0x3ce ..\obj\lpc11xx_tmr.o
                                0x6af (size before relaxing)
 .debug_str     0x000019ec      0x227 ..\obj\main.o
                                0x2ff (size before relaxing)
 .debug_str     0x00001c13      0x1f5 ..\obj\lpc11xx_gpio.o
                                0x591 (size before relaxing)
 .debug_str     0x00001e08      0x433 ..\obj\lpc11xx_syscon.o
                                0x84f (size before relaxing)
 .debug_str     0x0000223b      0x1d3 ..\obj\lpc11xx_iocon.o
                                0x4ef (size before relaxing)
 .debug_str     0x0000240e      0x2b8 ..\obj\lpc11xx_adc.o
                                0x5b0 (size before relaxing)
 .debug_str     0x000026c6       0xec ..\obj\startup_lpc11xx.o
                                0x154 (size before relaxing)
 .debug_str     0x000027b2      0x156 ..\obj\lpc11xx_wdt.o
                                0x268 (size before relaxing)
 .debug_str     0x00002908      0x111 ..\obj\core_cm0.o
                                0x20d (size before relaxing)

.comment        0x00000000       0x70
 .comment       0x00000000       0x70 ..\obj\lpc11xx_i2c.o
                                 0x71 (size before relaxing)
 .comment       0x00000000       0x71 ..\obj\lpc11xx_uart.o
 .comment       0x00000000       0x71 ..\obj\system_LPC11xx.o
 .comment       0x00000000       0x71 ..\obj\lpc11xx_tmr.o
 .comment       0x00000000       0x71 ..\obj\main.o
 .comment       0x00000000       0x71 ..\obj\lpc11xx_gpio.o
 .comment       0x00000000       0x71 ..\obj\lpc11xx_syscon.o
 .comment       0x00000000       0x71 ..\obj\lpc11xx_iocon.o
 .comment       0x00000000       0x71 ..\obj\lpc11xx_adc.o
 .comment       0x00000000       0x71 ..\obj\startup_lpc11xx.o
 .comment       0x00000000       0x71 ..\obj\mainnew.o
 .comment       0x00000000       0x71 ..\obj\lpc11xx_wdt.o
 .comment       0x00000000       0x71 ..\obj\core_cm0.o

.ARM.attributes
                0x00000000       0x31
 .ARM.attributes
                0x00000000       0x31 ..\obj\lpc11xx_i2c.o
 .ARM.attributes
                0x00000031       0x31 ..\obj\lpc11xx_uart.o
 .ARM.attributes
                0x00000062       0x31 ..\obj\system_LPC11xx.o
 .ARM.attributes
                0x00000093       0x31 ..\obj\lpc11xx_tmr.o
 .ARM.attributes
                0x000000c4       0x31 ..\obj\main.o
 .ARM.attributes
                0x000000f5       0x31 ..\obj\lpc11xx_gpio.o
 .ARM.attributes
                0x00000126       0x31 ..\obj\lpc11xx_syscon.o
 .ARM.attributes
                0x00000157       0x31 ..\obj\lpc11xx_iocon.o
 .ARM.attributes
                0x00000188       0x31 ..\obj\lpc11xx_adc.o
 .ARM.attributes
                0x000001b9       0x31 ..\obj\startup_lpc11xx.o
 .ARM.attributes
                0x000001ea       0x31 ..\obj\mainnew.o
 .ARM.attributes
                0x0000021b       0x31 ..\obj\lpc11xx_wdt.o
 .ARM.attributes
                0x0000024c       0x31 ..\obj\core_cm0.o
 .ARM.attributes
                0x0000027d       0x1e c:/program files/gnu tools arm embedded/4.6 2012q2/bin/../lib/gcc/arm-none-eabi/4.6.2/armv6-m\libgcc.a(_udivsi3.o)
 .ARM.attributes
                0x0000029b       0x1e c:/program files/gnu tools arm embedded/4.6 2012q2/bin/../lib/gcc/arm-none-eabi/4.6.2/armv6-m\libgcc.a(_divsi3.o)
 .ARM.attributes
                0x000002b9       0x1e c:/program files/gnu tools arm embedded/4.6 2012q2/bin/../lib/gcc/arm-none-eabi/4.6.2/armv6-m\libgcc.a(_dvmd_tls.o)
 .ARM.attributes
                0x000002d7       0x1e c:/program files/gnu tools arm embedded/4.6 2012q2/bin/../lib/gcc/arm-none-eabi/4.6.2/armv6-m\libgcc.a(_aeabi_uldivmod.o)
 .ARM.attributes
                0x000002f5       0x2c c:/program files/gnu tools arm embedded/4.6 2012q2/bin/../lib/gcc/arm-none-eabi/4.6.2/armv6-m\libgcc.a(_muldi3.o)
 .ARM.attributes
                0x00000321       0x2c c:/program files/gnu tools arm embedded/4.6 2012q2/bin/../lib/gcc/arm-none-eabi/4.6.2/armv6-m\libgcc.a(bpabi.o)
 .ARM.attributes
                0x0000034d       0x2c c:/program files/gnu tools arm embedded/4.6 2012q2/bin/../lib/gcc/arm-none-eabi/4.6.2/armv6-m\libgcc.a(unwind-arm.o)
 .ARM.attributes
                0x00000379       0x1e c:/program files/gnu tools arm embedded/4.6 2012q2/bin/../lib/gcc/arm-none-eabi/4.6.2/armv6-m\libgcc.a(libunwind.o)
 .ARM.attributes
                0x00000397       0x2c c:/program files/gnu tools arm embedded/4.6 2012q2/bin/../lib/gcc/arm-none-eabi/4.6.2/armv6-m\libgcc.a(pr-support.o)
 .ARM.attributes
                0x000003c3       0x2c c:/program files/gnu tools arm embedded/4.6 2012q2/bin/../lib/gcc/arm-none-eabi/4.6.2/armv6-m\libgcc.a(_divdi3.o)
 .ARM.attributes
                0x000003ef       0x2c c:/program files/gnu tools arm embedded/4.6 2012q2/bin/../lib/gcc/arm-none-eabi/4.6.2/armv6-m\libgcc.a(_udivdi3.o)
 .ARM.attributes
                0x0000041b       0x1e c:/program files/gnu tools arm embedded/4.6 2012q2/bin/../lib/gcc/arm-none-eabi/4.6.2/armv6-m\libgcc.a(_clzsi2.o)
 .ARM.attributes
                0x00000439       0x2c c:/program files/gnu tools arm embedded/4.6 2012q2/bin/../lib/gcc/arm-none-eabi/4.6.2/../../../../arm-none-eabi/lib/armv6-m\libg.a(lib_a-abort.o)
 .ARM.attributes
                0x00000465       0x2c c:/program files/gnu tools arm embedded/4.6 2012q2/bin/../lib/gcc/arm-none-eabi/4.6.2/../../../../arm-none-eabi/lib/armv6-m\libg.a(lib_a-memcpy.o)
 .ARM.attributes
                0x00000491       0x2c c:/program files/gnu tools arm embedded/4.6 2012q2/bin/../lib/gcc/arm-none-eabi/4.6.2/../../../../arm-none-eabi/lib/armv6-m\libg.a(lib_a-signal.o)
 .ARM.attributes
                0x000004bd       0x2c c:/program files/gnu tools arm embedded/4.6 2012q2/bin/../lib/gcc/arm-none-eabi/4.6.2/../../../../arm-none-eabi/lib/armv6-m\libg.a(lib_a-signalr.o)
 .ARM.attributes
                0x000004e9       0x2c c:/program files/gnu tools arm embedded/4.6 2012q2/bin/../lib/gcc/arm-none-eabi/4.6.2/../../../../arm-none-eabi/lib/armv6-m\libg.a(lib_a-impure.o)
 .ARM.attributes
                0x00000515       0x2c c:/program files/gnu tools arm embedded/4.6 2012q2/bin/../lib/gcc/arm-none-eabi/4.6.2/../../../../arm-none-eabi/lib/armv6-m\libg.a(lib_a-mallocr.o)
 .ARM.attributes
                0x00000541       0x2c c:/program files/gnu tools arm embedded/4.6 2012q2/bin/../lib/gcc/arm-none-eabi/4.6.2/../../../../arm-none-eabi/lib/armv6-m\libg.a(lib_a-mlock.o)
 .ARM.attributes
                0x0000056d       0x2c c:/program files/gnu tools arm embedded/4.6 2012q2/bin/../lib/gcc/arm-none-eabi/4.6.2/../../../../arm-none-eabi/lib/armv6-m\libg.a(lib_a-reent.o)
 .ARM.attributes
                0x00000599       0x2c c:/program files/gnu tools arm embedded/4.6 2012q2/bin/../lib/gcc/arm-none-eabi/4.6.2/../../../../arm-none-eabi/lib/armv6-m\libg.a(lib_a-sbrkr.o)
 .ARM.attributes
                0x000005c5       0x2c c:/program files/gnu tools arm embedded/4.6 2012q2/bin/../lib/gcc/arm-none-eabi/4.6.2/../../../../arm-none-eabi/lib/armv6-m\libg.a(lib_a-freer.o)

.debug_frame    0x00000000     0x1c4c
 .debug_frame   0x00000000      0x2cc ..\obj\lpc11xx_i2c.o
 .debug_frame   0x000002cc      0x3c4 ..\obj\lpc11xx_uart.o
 .debug_frame   0x00000690       0x70 ..\obj\system_LPC11xx.o
 .debug_frame   0x00000700      0x1b0 ..\obj\lpc11xx_tmr.o
 .debug_frame   0x000008b0       0x4c ..\obj\main.o
 .debug_frame   0x000008fc      0x1b0 ..\obj\lpc11xx_gpio.o
 .debug_frame   0x00000aac      0x45c ..\obj\lpc11xx_syscon.o
 .debug_frame   0x00000f08      0x110 ..\obj\lpc11xx_iocon.o
 .debug_frame   0x00001018      0x1c8 ..\obj\lpc11xx_adc.o
 .debug_frame   0x000011e0       0x4c ..\obj\startup_lpc11xx.o
 .debug_frame   0x0000122c      0x13c ..\obj\lpc11xx_wdt.o
 .debug_frame   0x00001368      0x130 ..\obj\core_cm0.o
 .debug_frame   0x00001498       0x20 c:/program files/gnu tools arm embedded/4.6 2012q2/bin/../lib/gcc/arm-none-eabi/4.6.2/armv6-m\libgcc.a(_udivsi3.o)
 .debug_frame   0x000014b8       0x20 c:/program files/gnu tools arm embedded/4.6 2012q2/bin/../lib/gcc/arm-none-eabi/4.6.2/armv6-m\libgcc.a(_divsi3.o)
 .debug_frame   0x000014d8       0x30 c:/program files/gnu tools arm embedded/4.6 2012q2/bin/../lib/gcc/arm-none-eabi/4.6.2/armv6-m\libgcc.a(_muldi3.o)
 .debug_frame   0x00001508       0x50 c:/program files/gnu tools arm embedded/4.6 2012q2/bin/../lib/gcc/arm-none-eabi/4.6.2/armv6-m\libgcc.a(bpabi.o)
 .debug_frame   0x00001558      0x2ac c:/program files/gnu tools arm embedded/4.6 2012q2/bin/../lib/gcc/arm-none-eabi/4.6.2/armv6-m\libgcc.a(unwind-arm.o)
 .debug_frame   0x00001804       0xfc c:/program files/gnu tools arm embedded/4.6 2012q2/bin/../lib/gcc/arm-none-eabi/4.6.2/armv6-m\libgcc.a(pr-support.o)
 .debug_frame   0x00001900       0x3c c:/program files/gnu tools arm embedded/4.6 2012q2/bin/../lib/gcc/arm-none-eabi/4.6.2/armv6-m\libgcc.a(_divdi3.o)
 .debug_frame   0x0000193c       0x3c c:/program files/gnu tools arm embedded/4.6 2012q2/bin/../lib/gcc/arm-none-eabi/4.6.2/armv6-m\libgcc.a(_udivdi3.o)
 .debug_frame   0x00001978       0x28 c:/program files/gnu tools arm embedded/4.6 2012q2/bin/../lib/gcc/arm-none-eabi/4.6.2/../../../../arm-none-eabi/lib/armv6-m\libg.a(lib_a-abort.o)
 .debug_frame   0x000019a0       0x30 c:/program files/gnu tools arm embedded/4.6 2012q2/bin/../lib/gcc/arm-none-eabi/4.6.2/../../../../arm-none-eabi/lib/armv6-m\libg.a(lib_a-memcpy.o)
 .debug_frame   0x000019d0       0xe4 c:/program files/gnu tools arm embedded/4.6 2012q2/bin/../lib/gcc/arm-none-eabi/4.6.2/../../../../arm-none-eabi/lib/armv6-m\libg.a(lib_a-signal.o)
 .debug_frame   0x00001ab4       0x44 c:/program files/gnu tools arm embedded/4.6 2012q2/bin/../lib/gcc/arm-none-eabi/4.6.2/../../../../arm-none-eabi/lib/armv6-m\libg.a(lib_a-signalr.o)
 .debug_frame   0x00001af8       0x3c c:/program files/gnu tools arm embedded/4.6 2012q2/bin/../lib/gcc/arm-none-eabi/4.6.2/../../../../arm-none-eabi/lib/armv6-m\libg.a(lib_a-mallocr.o)
 .debug_frame   0x00001b34       0x30 c:/program files/gnu tools arm embedded/4.6 2012q2/bin/../lib/gcc/arm-none-eabi/4.6.2/../../../../arm-none-eabi/lib/armv6-m\libg.a(lib_a-mlock.o)
 .debug_frame   0x00001b64       0x68 c:/program files/gnu tools arm embedded/4.6 2012q2/bin/../lib/gcc/arm-none-eabi/4.6.2/../../../../arm-none-eabi/lib/armv6-m\libg.a(lib_a-reent.o)
 .debug_frame   0x00001bcc       0x2c c:/program files/gnu tools arm embedded/4.6 2012q2/bin/../lib/gcc/arm-none-eabi/4.6.2/../../../../arm-none-eabi/lib/armv6-m\libg.a(lib_a-sbrkr.o)
 .debug_frame   0x00001bf8       0x54 c:/program files/gnu tools arm embedded/4.6 2012q2/bin/../lib/gcc/arm-none-eabi/4.6.2/../../../../arm-none-eabi/lib/armv6-m\libg.a(lib_a-freer.o)
