:040000008131CF2952
:10000800803120007F08F20018101608F0007008F0
:10001800F3001708F0007008F4001814BD29270031
:10002800161C832816107408F000F1017008F100FE
:10003800F001700873042000A6007108A7002708C3
:10004800A501A5072608A401A407CE08031D2F288B
:10005800CE01CE0A712821082004031D4428220954
:10006800F0002309F100F00A0319F10A24087007C7
:100078002100C20020002508713D2100C30071281D
:1000880020002209F0002309F100F00A0319F10AFF
:10009800240870072100C20020002508713D2100B6
:1000A800C30020002108F1002008F000F136F00C10
:1000B80070082100C0007108C10040082000A60790
:1000C800210041082000A73D2608250091002000B6
:1000D8002708250092002100111520002508A301FA
:1000E800A3072408A201A207210043082000A101B8
:1000F800A107210042082000A001A007BD29961CE5
:10010800F22896107408F000F1017008F100F0016F
:10011800700873042000AE007108AF002F08AD010D
:10012800AD072E08AC01AC07CF08031D9E28CF01F0
:10013800CF0AE02829082804031DB3282A09F0005B
:100148002B09F100F00A0319F10A2C0870072100A5
:10015800C60020002D08713D2100C700E0282000BE
:100168002A09F0002B09F100F00A0319F10A2C08FA
:1001780070072100C60020002D08713D2100C7002E
:1001880020002908F1002808F000F136F00C70086A
:100198002100C4007108C50044082000AE072100F2
:1001A80045082000AF3D2E082500980020002F08A4
:1001B800250099002100121420002D08AB01AB077F
:1001C8002C08AA01AA07210047082000A901A907AD
:1001D800210046082000A801A807BD29161DBD2931
:1001E80016117408F000F1017008F100F0017008B0
:1001F80073042000B6007108B7003708B501B507C9
:100208003608B401B407D008031D0D29D001D00A5F
:100218004F2931083004031D22293209F00033091F
:10022800F100F00A0319F10A340870072100CA0026
:1002380020003508713D2100CB004F2920003209EC
:10024800F0003309F100F00A0319F10A34087007C5
:100258002100CA0020003508713D2100CB00200094
:100268003108F1003008F000F136F00C7008210078
:10027800C8007108C90048082000B60721004908CD
:100288002000B73D360826009100200037082600D8
:1002980092002100131620003508B301B307340873
:1002A800B201B20721004B082000B101B1072100BB
:1002B8004A082000B001B007BD2911112100111111
:1002C8002000C301C30ABD2912102100121020000A
:1002D800C601C60ABD291312210013122000C90144
:1002E800C90ABD298B10BD29911021009110200049
:1002F8001C11BD291113210011131C082000B9017C
:10030800B90721001B082000B801B8074208013AC4
:10031800031D97293908BB01BB073808BA01BA077A
:10032800C401C40ABD294508013A031DA429390896
:10033800BD01BD073808BC01BC07C701C70ABD29F4
:100348004808013A031DB1293908BF01BF07380819
:10035800BE01BE07CA01CA0ABD294B08013A031DDE
:10036800BD293908C101C1073808C001C007CD013E
:10037800CD0A0B18132820001119612912186829B1
:10038800131A6F298B18762991187829111B7E2941
:100398007208FF00090086316B2ECC302100DC008A
:1003A8005C08E100D430DC005C08F9008531672581
:1003B80081312000DC01DA01D801D601E101DF0139
:1003C800DE01DD01E001F501083075020318FF299F
:1003D8007508D43E8600870181017508CC3E8600E9
:1003E8008701810101302100DC005C08F507083035
:1003F8007502031CEC29F50110307502031C2D2A27
:100408007535C03E8600013087000030C03FC13FCF
:100418007535403E8600013087000030C03FC13F3F
:100428007535A03E8600013087000030C03FC13FCF
:100438007535203E8600013087000030C03FC13F3F
:1004480001302100DC005C08F50710307502031844
:10045800042A00302100BF000030BE000030BD007B
:100468000030BC003F08B7003E08B6003D08B500A4
:100478003C08B4003708B3003608B2003508B100AC
:100488003408B0003308AF003208AE003108AD00C0
:100498003008AC002F08AB002E08AA002D08A900D0
:1004A8002C08A8002B08A7002A08A6002908A500E0
:1004B8002808A4002708A3002608A2002508A100F0
:1004C8002408A000640020005408013A031DBB2B37
:1004D800D4302100DC005C08F9002000600821000D
:1004E800DC007908860087015C0881000130DC00A7
:1004F8005C08F907F03020005D052100DC002000D1
:100508005E082100DD000330DD35FF3E031D882A2B
:100518005D35F0395C07DE005E082000DF005F080B
:100528002100DC007908860087015C088100013021
:10053800DC005C08F9072000E1015608013A031DB8
:10054800DE2AE101E10A61082100DC007908860061
:1005580087015C0881000130DC005C08F907200095
:100568005535203E860001308700403F2100DC00E1
:10057800413FDD005D08DE007908860087015E08DE
:1005880081000130DC005C08F90720005535203E69
:1005980086000130870001082100DC007908860008
:1005A80087015C0881000130DC005C08F907200045
:1005B800D6015F2B5808013A031D1F2B023021007A
:1005C800DC005C082000E10061082100DC007908FB
:1005D800860087015C0881000130DC005C08F907AF
:1005E80020005735A03E860001308700403F21009B
:1005F800DC00413FDD005D08DE00790886008701E8
:100608005E0881000130DC005C08F90720005735DE
:10061800203E86000130870001082100DC007908AF
:10062800860087015C0881000130DC005C08F9075E
:100638002000D8015F2B5A08013A031D5F2B0430B4
:100648002100DC005C082000E10061082100DC00DA
:100658007908860087015C0881000130DC005C08AD
:10066800F90720005935403E860001308700403F99
:100678002100DC00413FDD005D08DE0079088600CE
:1006880087015E0881000130DC005C08F907200062
:100698005935403E86000130870001082100DC0002
:1006A8007908860087015C0881000130DC005C085D
:1006B800F9072000DA015C08013A031D8E2BE115C9
:1006C8005B35C03E860001308700403F2100DC00DA
:1006D800413FDD005D08DE007908860087015E087D
:1006E80081000130DC005C08F90720005B35C03E62
:1006F80086000130870001082100DC0079088600A7
:1007080087015C0881000130DC005C08F9072000E3
:10071800DC01A52BFF302100DC0079088600870169
:100728005C0881000130DC005C08F907FF30DC0060
:100738007908860087015C0881000130DC005C08CC
:10074800F907CC302100DC005C082000E700D43039
:100758008731162781312000D40101302100DC00C7
:100768005C082000E007113060020318E00144082B
:10077800013A031D132CC40175082100DC005C0834
:100788002000D5007535203E8600013087003A08E4
:10079800C03F3B08C13F01302100DC005C08F50781
:1007A80020008D113A082100DC0020003B082100C0
:1007B800DD000030DD1BFF30DE00DF005C08A40731
:1007C8005D08A53D5E08A63D5F08A73D103075028F
:1007D800031C0E2CF5012408DC002508DD00260882
:1007E800DE002708DF000430DF36DE0CDD0CDC0C11
:1007F800890BF82B5F08A3005E08A2005D08A10022
:100808005C08A0000030A7000030A6000030A5005A
:100818000030A4002000C201D601D60AC22C470825
:10082800013A031D6B2CC70176082100DC005C0827
:100838002000D7007635A03E8600013087003C08AE
:10084800C03F3D08C13F01302100DC005C08F607CD
:1008580020000D123C082100DC0020003D0821008A
:10086800DD000030DD1BFF30DE00DF005C08AC0778
:100878005D08AD3D5E08AE3D5F08AF3D10307602C5
:10088800031C662CF6012C08DC002D08DD002E0860
:10089800DE002F08DF000430DF36DE0CDD0CDC0C58
:1008A800890B502C5F08AB005E08AA005D08A90000
:1008B8005C08A8000030AF000030AE000030AD008A
:1008C8000030AC002000C501D801D80AC22C4A0863
:1008D800013A031DC52CCA0177082100DC005C0819
:1008E8002000D9007735403E8600013087003E0859
:1008F800C03F3F08C13F01302100DC005C08F7071A
:1009080020008D123E082100DC0020003F08210055
:10091800DD000030DD1BFF30DE00DF005C08B407BF
:100928005D08B53D5E08B63D5F08B73D10307702FB
:10093800031CBE2CF7013408DC003508DD0036083E
:10094800DE003708DF000430DF36DE0CDD0CDC0C9F
:10095800890BA82C5F08B3005E08B2005D08B100DF
:100968005C08B0000030B7000030B6000030B500B9
:100978000030B4002000C801DA01DA0ACC01CC0A40
:100988001E2D4D08013A031D1E2DCD0178082100AA
:10099800DC005C082000DB007835C03E86000130B2
:1009A80087004008C03F4108C13F01302100DC00FA
:1009B8005C08F80720000E1040082100DC00200029
:1009C80041082100DD000030DD1BFF30DE00DF00C4
:1009D8005C08BC075D08BD3D5E08BE3D5F08BF3DC5
:1009E80010307802031C182DF8013C08DC003D0883
:1009F800DD003E08DE003F08DF000430DF36DE0C95
:100A0800DD0CDC0C890B022D5F08BB005E08BA0008
:100A18005D08B9005C08B8000030BF000030BE00B7
:100A28000030BD000030BC002000CB01DC01DC0A36
:100A3800D401D40AC208031D662AC508031D662A04
:100A4800C808031D662ACB08031D662A21009D18C5
:100A5800662A20004308013A031D3A2D8D15C2016C
:100A6800C20AC301833021009D05642D2000460879
:100A7800013A031D482D0D16C501C50AC6012100FE
:100A88001D0883390438632D20004908013A031DE5
:100A9800562D8D16C801C80AC90121001D088339C1
:100AA8000838632D20004C08013A031D662A0E14ED
:100AB800CB01CB0ACC0121001D0883390C389D00DD
:100AC8009D141117662A2100991319088739683867
:100AD80099001908FC390238990098012000900102
:100AE8008E018D018C0122008E018D018C01FF3059
:100AF80021008C00FF308D00FF308E00FF30900009
:100B080023008C018D018E0121000C148C140C150E
:100B18008C150C168C168C1620000E150F30230021
:100B28008C0021000D148D140D158D110D128D12D0
:100B38000E100E118E110E168E120E138E17200027
:100B48009601970199013F30980530309804981123
:100B5800181118141C08FC3902389C0087309C05B1
:100B68001C119A019B0121009D011D149D139E01DA
:100B78001E088F3940389E009E171E11FC309E05B6
:100B88000F309F00250093011308F0390A389300AD
:100B98009A011A08F0390A389A00260093011308B6
:100BA800F0390A38930027009F01990196019301B3
:100BB8009D019701940191019E019801950192016F
:100BC80014149414141515149514151511161216D9
:100BD8002400940194131417950195161512F030FA
:100BE800950596019613161097019301920100300E
:100BF8009205910120009401920191012100911325
:100C080011139112111291111111911011109213C7
:100C180092121213921012129211121112109413AE
:100C28001413941214129411141194101410131212
:100C38009110200094019301920191010B178B12DE
:100C48000B128B158B17D401CE01CF01D001D10126
:100C5800C301C601C901CC01C201C501C801CB014C
:100C6800C401C701CA01CD01A601A701AE01AF01A8
:100C7800B601B7012100C201C301C601C701CA01FB
:100C8800CB012000A001A101A801A901B001B10177
:100C9800A401A501A201A3012100C001C1012000F6
:100CA800AC01AD01AA01AB012100C401C5012000BE
:100CB800B401B501B201B3012100C801C901203056
:100CC800E0002000E2006208ED00D2010800F50112
:100CD800F601F701F8012030840000308500423029
:100CE800873130278631A0308400003085003C30C1
:100CF800873130278631203084000130850040302C
:100D0800873130278631A03084000130850040309B
:100D1800873130278631203084000230850040300A
:100D28008731302720008131D12900340134003443
:100D38000A34003464340034E8340334103427347B
:100D48002534733420342D34203425347534093453
:100D58000A340D34003428346E3475346C346C34F1
:100D6800293400344C343134203400344C34323497
:100D7800203400344C343334203400345334553464
:100D88004D3400342000E5000E11E60163086602C8
:100D98000318ED2E650886008701010824009100DC
:100DA80001302000E4006408E5072400141CD92E53
:100DB80011082000E40062088600870164088100A9
:100DC8000130E4006408E2070130E4006408E60743
:100DD800CA2E0E1508002000E300E4016308E200B3
:100DE8006208E600E5010730650203180E2F660861
:100DF800860087010108E2006208E4060130E2008B
:100E08006208E6070130E2006208E507073065027C
:100E1800031CFB2E6408E20066088600870162084E
:100E2800810008002000EC00EA016C08E80068086E
:100E3800EB006C088631EF26873120006708E80050
:100E48006808E2000830E9006908E3006C088631A8
:100E5800C6262000D4010800640080010131890BF6
:040E6800312F0034F2
:020000040001F9
:04000E00C4C1FFDB8F
:00000001FF
